:020000041000EA
:1000000000B5324B212058609868022188439860DF
:10001000D860186158612E4B002199600221596106
:100020000121F02299502B49196001219960352056
:1000300000F044F80222904214D00621196600F024
:1000400034F8196E01211966002018661A6600F04E
:100050002CF8196E196E196E052000F02FF8012189
:100060000842F9D1002199601B49196000215960AB
:100070001A491B48016001219960EB211966A021F2
:10008000196600F012F800219960164914480160C1
:100090000121996001BC002800D000471248134993
:1000A000086003C880F30888084703B5996A0420EC
:1000B0000142FBD001200142F8D103BD02B5186610
:1000C0001866FFF7F2FF186E186E02BD00000240BE
:1000D000000000180000070000035F00212200005C
:1000E000F4000018222000A00001001008ED00E03C
:1000F00000000000000000000000000074B24E7A12
:1001000000200420F7010010C3010010C5010010F9
:10011000C1010010C1010010C1010010C101001097
:10012000C1010010C1010010C1010010C701001081
:10013000C1010010C1010010C9010010CB01001065
:10014000CD010010CD010010CD010010CD01001037
:10015000CD010010CD010010CD010010CD01001027
:10016000CD010010CD010010CD010010CD01001017
:10017000CD010010CD010010CD010010CD01001007
:10018000CD010010CD010010CD010010CD010010F7
:10019000CD010010CD010010CD010010CD010010E7
:1001A000CD010010CD010010CD010010CD010010D7
:1001B000CD010010CD010010CD010010CD010010C7
:1001C00000BE00BE00BE00BE00BE00BEEFF3058054
:1001D000103800BEF2EB88719CAF0010C8AF001061
:1001E0003402001090A31AE700201F49086006C8D7
:1001F00081F3088810471D48006800282FD10DA4FE
:100200000ECC002902D000F012F8F9E71849194A7B
:10021000002000E001C19142FCD1174988471749ED
:1002200088471749884700BEFDE701C901C29A42C5
:10023000FBD37047C8AF0010C00000200C10002096
:1002400014BF0010000004200000042014BF0010A0
:10025000001004200010042000000000704709482E
:1002600006F0DAF90047000008ED00E0000000D0D9
:1002700018100020041E0020D14E001005030010AD
:10028000C54F00105756000006005250ABB36053E4
:10029000E8AC001006005250861C0302F8AC0010B7
:1002A000060052505422A29D08AD00100500525085
:1002B000DE65F46814BF0010F8B5C04610B5064CF2
:1002C0002378002B07D1054B002B02D0044800E017
:1002D00000BF0123237010BD201300200000000088
:1002E00088A40010044B10B5002B03D00349044828
:1002F00000E000BF10BDC046000000002413002035
:1003000088A4001010B500F013F807F037FB00F0D8
:1003100015F800F031F802F0F1FF00F05FFA642008
:1003200003F012FF00F06EFA00F088F9F7E7C0461C
:10033000014B986A7047C0460040054010B509F06F
:10034000AFFF1F211A2002F0EBFF002200211A202C
:1003500002F0FEFF00211A2003F024F81F211B20C9
:1003600002F0DEFF002200211B2002F0F1FF00213D
:100370001B2003F017F810BDF0B5C64600B5AD4D13
:1003800084B02800AC4909F0F9FE0321022002F0F4
:10039000C7FF0321032002F0C3FF00220121022036
:1003A00002F0D6FF00220121032002F0D1FF32200B
:1003B00003F0CAFE3C2300263827984603AC2200EF
:1003C000237027213B3B2800009609F001FF012004
:1003D000002103F0A7FE2200277001232721280017
:1003E000009609F0F5FE3220002103F09BFE434603
:1003F0002200237027213B3B2800009609F0E8FEED
:100400000120002103F08EFE220027700123272106
:100410002800009609F0DCFE3220002103F082FE65
:1004200043462200237027213B3B2800009609F019
:10043000CFFE0120002103F075FE2200277001236A
:1004400027212800009609F0C3FE3220002103F086
:1004500069FE2C2398462200237027212B3B28007D
:10046000009609F0B5FE103F0120002103F05AFE6E
:1004700022002770012327212800009609F0A8FEFA
:100480003220002103F04EFE434622002370272134
:100490002B3B2800009609F09BFE0120002103F071
:1004A00041FE22002770012327212800009609F031
:1004B0008FFE3220002103F035FE8C2322002370B2
:1004C00027218B3B2800009609F082FE01200021A5
:1004D00003F028FE8823220023702721873B280071
:1004E000009609F075FE3220002103F01BFE0C235C
:1004F00022009846237027210B3B2800009609F024
:1005000067FE203F0120002103F00CFE22000123A2
:10051000277027212800009609F05AFE322000217A
:1005200003F000FECC23220023702721CB3B2800C0
:10053000009609F04DFE0120002103F0F3FDC823D1
:10054000220023702721C73B2800009609F040FEB7
:100550003220002103F0E6FD4346220023702721CC
:100560000B3B2800009609F033FE0120002103F028
:10057000D9FD22000123277027212800009609F0C9
:1005800027FE3220002103F0CDFD6C2322002370D2
:1005900027216B3B2800009609F01AFE012000215C
:1005A00003F0C0FD6823220023702721673B280049
:1005B000009609F00DFE3220002103F0B3FD434602
:1005C0002200237027210B3B2800009609F000FE33
:1005D0000120002103F0A6FD22000123277027211E
:1005E0002800009609F0F4FD3220002103F09AFD66
:1005F0001C232200237027211B3B2800009609F0B2
:10060000E7FD0120002103F08DFD18232200237057
:100610002721173B2800009609F0DAFD002132203F
:1006200003F080FD052003F08FFD04B080BCB846C8
:10063000F0BDC046E00F0020A0860100F0B5DE4608
:1006400057464E464546E0B5564B85B01B6803AC51
:100650001A0A6370544B22709A461B6853481A0A50
:10066000A270E37003F070FD514B02AE1800994682
:1006700007F0D6F84F4B80253380D0231B069846D1
:10068000AD02022231009D614B4809F0CDFE434688
:1006900048465D6107F0C4F88D233380434602224B
:1006A00031009D61444809F0BFFE434648465D6104
:1006B00007F0B6F843469D618023012231003E4891
:1006C000337009F0B1FE042221003B4809F0ACFE72
:1006D000434648465D6107F0A3F8384B0222338059
:1006E000434631009D61344809F09EFE434648462A
:1006F0005D6107F095F8324B0222338043463100AA
:100700009D612D4809F090FE43462E485D6107F03B
:1007100087F86B46DF1D12232B4D9B4605E0013DFC
:100720003CD30A20002103F0FDFC5B4680243B7093
:100730004346A402012239009C611F4809F074FE5F
:100740000123320000211C4809F02EFE43465C6163
:1007500033781B07E3D5002D20D01C4807F060F844
:10076000D0248025484607F05BF8194B2406AD02DB
:10077000338031000222A5610F4809F055FE53462F
:1007800065611A68074B1348196807F0EBF805B064
:10079000F0BCBB46B246A946A046F0BD0E4807F0E5
:1007A0003FF8DDE7DC1D0020E01D0020881300007D
:1007B00088A400108181FFFF00000440A204000013
:1007C0008183FFFF9CA4001010270000C0A400102C
:1007D00092080000CCA40010ACA4001010B500F0EA
:1007E000DBF800F067FE032002F05CF8002002F066
:1007F00045F809F055FD0022014B1A609A8010BDA2
:10080000801D0020F0B5CE46474680B5524C83B0DF
:10081000200002F013FCFA230421625E5B009A427E
:1008200047DB6421142002F0EBFB4C4802F0FCFB98
:10083000022002F0EFFB002002F0F6FB484B18000C
:10084000984602F071FB474E474F0023F15E0023AC
:10085000F85E1422002302F0AFF83C883588053C8E
:1008600020B23E4C013D29B202230A22009401F03D
:10087000A5FF31883888053901380A23022209B2D8
:1008800000B2009401F09AFF6421142002F0B8FB3A
:10089000200002F0C9FB33883A883449404605F00D
:1008A00071FE404602F040FB03B0C0BCB946B04602
:1008B000F0BD0022A35E2E4A2E49944663441801DF
:1008C000C01A000105F0DAFE0222A35E2A4A85B2B0
:1008D000944663449800C0182849800105F0CEFE74
:1008E0004130FF30642184B2142002F089FB1B48A0
:1008F00002F09AFB022002F08DFB002002F094FB34
:10090000174B1800984602F00FFB164E164F0023A7
:10091000F15E0023F85E1422002302F04DF800235C
:10092000994631883888013905380A2209B200B25F
:100930000093023301F042FF4B4631883888053975
:1009400001380093022209B200B20A3301F036FFE7
:100950003C80358083E7C046801D0020FFFF0000FB
:1009600098180020F61D0020F41D0020E4A40010BB
:10097000E0FCFFFF8C0A0000DAFDFFFFE4F3FFFF5D
:100980000122034B1A630022024B1A707047C046C3
:1009900000002050D80E0020F0B5C646F02200B569
:1009A0003F4B84B01A803F4B50320420D0241A8031
:1009B00002F00CFD1023240663620620636102F03E
:1009C00005FD40230520636202F000FD2023364E22
:1009D00063623649306809F021FA354BC20118606C
:1009E000431D1B031343334A346813400193324BB6
:1009F00075680393314B0700029380235B020093D9
:100A00008123290020000022DB0109F06BFA8123F9
:100A1000DB011A002900200009F0B6FA284B072054
:100A2000E3185A1E934106339846190002F078FCE9
:100A300041460E2002F074FC00210E2002F0A0FCC2
:100A40006B463A002900200009F0F0FA6B005B19B0
:100A5000DB001C4AE318D8331A601B4A07201A60CF
:100A600001221300AB4021680B4323603368174910
:100A70001A6380222D339201FF33134380225200E8
:100A80001A6002F0B1FD0121072002F075FDFA2085
:100A9000400003F059FB04B080BCB846F0BDC0462E
:100AA000E61D0020E41D0020DC0E0020F0A900104F
:100AB000741D0020FFFFFF9F073810200000061064
:100AC0000000E0AF26E0000046E0000081090010D1
:100AD000012270B5104D060A6B6829681C1D103381
:100AE0009A40A4000C194B681A42FCD1267012CD12
:100AF0002300012210339A40084D2B78002BFCD1A3
:100B000004340133A4002B70C0B20C194B6813429B
:100B1000FCD1207070BDC046DC0E0020D80E002035
:100B2000D023F0B5C646150020221B06824E00B524
:100B30009A61103A9A6173680F3A1C1D10339A40FB
:100B40000F003168A4000C194B681A42FCD12A230B
:100B50002370C046C046C046C046C046C046C046D8
:100B6000C046C046C046C046C046C046C046C04655
:100B7000C046C046C046C046C046C046C046C04645
:100B8000C046C046C046C046C046C046C046C04635
:100B9000C046C046C046C046C046C046C046C04625
:100BA000C046C046C046C046C046C046C046C04615
:100BB000C046C046C046C046C046C046C046C04605
:100BC000C046C046C046C046C046C046C046C046F5
:100BD000C0465A4C2378002BFCD101332370D0231C
:100BE000102220211B065A6159619A6183B21800B4
:100BF0009846FFF76DFFC046C046C046C046C04697
:100C0000C046C046C046C046C046C046C046C046B4
:100C1000C046C046C046C046C046C046C046C046A4
:100C2000C046C046C046C046C046C046C046C04694
:100C3000C046C046C046C046C046C046C046C04684
:100C4000C046C046C046C046C046C046C046C04674
:100C5000C046C046C046C046C046C046C046C04664
:100C6000C046C046C046C046C046C046C046C04654
:100C7000C046C046C046C046C046C046C046C04644
:100C8000C046C046C046C046C046C046C046C04634
:100C9000C046C046C046C046C046C046C046C04624
:100CA000C046C046C046C046C046C046C046C04614
:100CB000C046C046C046C046C046C046C046C04604
:100CC000C046C046C046C046C046C046C046C046F4
:100CD000C046C046C046C046C046C046C046C046E4
:100CE000C046C046C046C046C046C046C046C046D4
:100CF000C046C046C046C046C046C046C046C046C4
:100D0000C046C046C046C046C046C046C046C046B3
:100D1000C046C046C046C046C046C046C046C046A3
:100D2000C046C046C046C046C046C046C046C04693
:100D3000C046C046C04603E0DC0E0020D80E0020AE
:100D40002378002BFCD1013323704046D02310229E
:100D50001B0601305A6180B29A61FFF7B9FEC046A6
:100D6000C046C046C046C046C046C046C046C04653
:100D7000C046C046C046C046C046C046C046C04643
:100D8000C046C046C046C046C046C046C046C04633
:100D9000C046C046C046C046C046C046C046C04623
:100DA000C046C046C046C046C046C046C046C04613
:100DB000C046C046C046C046C046C046C046C04603
:100DC000C046C046C046C046C046C046C046C046F3
:100DD000C046C046C046C046C046C046C046C046E3
:100DE000C046C046C046C046C046C046C046C046D3
:100DF000C046C046C046C046C046C046C046C046C3
:100E0000C046C046C046C046C046C046C046C046B2
:100E1000C046C046C046C046C046C046C046C046A2
:100E2000C046C046C046C046C046C046C046C04692
:100E3000C046C046C046C046C046C046C046C04682
:100E4000C046C046C046C046C046C046C046C04672
:100E5000C046C046C046C046C046C046C046C04662
:100E6000C046C046C046C046C046C046C046C04652
:100E7000C046C046C046C046C046C046C046C04642
:100E8000C046C046C046C046C046C046C046C04632
:100E9000C046C046C046C046C046C046C04623788D
:100EA000002BFCD1D0231022012020211B06207012
:100EB0005A61996171689A610B1D9B009C461031C3
:100EC00088403268944453681842FCD12B23624610
:100ED0001370C046C046C046C046C046C046C04665
:100EE000C046C046C046C046C046C046C046C046D2
:100EF000C046C046C046C046C046C046C046C046C2
:100F0000C046C046C046C046C046C046C046C046B1
:100F1000C046C046C046C046C046C046C046C046A1
:100F2000C046C046C046C046C046C046C046C04691
:100F3000C046C046C046C046C046C046C046C04681
:100F4000C046C046C046C046C046C046C046C04671
:100F5000C046C046C046C046C046C046C046C04661
:100F6000C046C046C046C046C046C046C046C04651
:100F7000C046C046C046C046C046C046C046C04641
:100F8000C046C046C046C046C046C046C046C04631
:100F9000C0462378002BFCD101332370D0231022CC
:100FA00020211B06BFB25A61380059619A61FFF7D0
:100FB0008FFDC046C046C046C046C046C046C0467B
:100FC000C046C046C046C046C046C046C046C046F1
:100FD000C046C046C046C046C046C046C046C046E1
:100FE000C046C046C046C046C046C046C046C046D1
:100FF000C046C046C046C046C046C046C046C046C1
:10100000C046C046C046C046C046C046C046C046B0
:10101000C046C046C046C046C046C046C046C046A0
:10102000C046C046C046C046C046C046C046C04690
:10103000C046C046C046C046C046C046C046C04680
:10104000C046C046C046C046C046C046C046C04670
:10105000C046C046C046C046C046C046C046C04660
:10106000C046C046C046C046C046C046C046C04650
:10107000C046C046C046C046C046C046C046C04640
:10108000C046C046C046C046C046C046C046C04630
:10109000C046C046C046C046C046C046C046C04620
:1010A000C046C046C046C046C046C046C046C04610
:1010B000C046C046C046C046C046C046C046C04600
:1010C000C046C046C046C046C046C046C046C046F0
:1010D000C046C046C046C046C046C046C046C046E0
:1010E000C046C046C046C046C046C046C046C046D0
:1010F000C0462378002BFCD101332370D02310226B
:101100001B0601375A61B8B29A61FFF7E1FCC0468D
:10111000C046C046C046C046C046C046C046C0469F
:10112000C046C046C046C046C046C046C046C0468F
:10113000C046C046C046C046C046C046C046C0467F
:10114000C046C046C046C046C046C046C046C0466F
:10115000C046C046C046C046C046C046C046C0465F
:10116000C046C046C046C046C046C046C046C0464F
:10117000C046C046C046C046C046C046C046C0463F
:10118000C046C046C046C046C046C046C046C0462F
:10119000C046C046C046C046C046C046C046C0461F
:1011A000C046C046C046C046C046C046C046C0460F
:1011B000C046C046C046C046C046C046C046C046FF
:1011C000C046C046C046C046C046C046C046C046EF
:1011D000C046C046C046C046C046C046C046C046DF
:1011E000C046C046C046C046C046C046C046C046CF
:1011F000C046C046C046C046C046C046C046C046BF
:10120000C046C046C046C046C046C046C046C046AE
:10121000C046C046C046C046C046C046C046C0469E
:10122000C046C046C046C046C046C046C046C0468E
:10123000C046C046C046C046C046C046C046C0467E
:10124000C046C046C046C046C046C046C0462378D9
:10125000002BFCD1D0231022012120201B0621705D
:101260005A6198619A6144CE301D1036B1408000B9
:10127000101853680B42FCD12C230370C046C046A3
:10128000C046C046C046C046C046C046C046C0462E
:10129000C046C046C046C046C046C046C046C0461E
:1012A000C046C046C046C046C046C046C046C0460E
:1012B000C046C046C046C046C046C046C046C046FE
:1012C000C046C046C046C046C046C046C046C046EE
:1012D000C046C046C046C046C046C046C046C046DE
:1012E000C046C046C046C046C046C046C046C046CE
:1012F000C046C046C046C046C046C046C046C046BE
:10130000C046C046C046C046C046C046C046C046AD
:10131000C046C046C046C046C046C046C046C0469D
:10132000C046C046C046C046C046C046C046C0468D
:10133000C046C046C046C046C046C0462378002BC3
:10134000FCD101332370D023102220211B065A61C7
:10135000280059619A61FFF7BBFBC046C046C046F2
:10136000C046C046C046C046C046C046C046C0464D
:10137000C046C046C046C046C046C046C046C0463D
:10138000C046C046C046C046C046C046C046C0462D
:10139000C046C046C046C046C046C046C046C0461D
:1013A000C046C046C046C046C046C046C046C0460D
:1013B000C046C046C046C046C046C046C046C046FD
:1013C000C046C046C046C046C046C046C046C046ED
:1013D000C046C046C046C046C046C046C046C046DD
:1013E000C046C046C046C046C046C046C046C046CD
:1013F000C046C046C046C046C046C046C046C046BD
:10140000C046C046C046C046C046C046C046C046AC
:10141000C046C046C046C046C046C046C046C0469C
:10142000C046C046C046C046C046C046C046C0468C
:10143000C046C046C046C046C046C046C046C0467C
:10144000C046C046C046C046C046C046C046C0466C
:10145000C046C046C046C046C046C046C046C0465C
:10146000C046C046C046C046C046C046C046C0464C
:10147000C046C046C046C046C046C046C046C0463C
:10148000C046C046C046C046C046C046C046C0462C
:10149000C046C046C046C046C0462378002BFCD19B
:1014A00001332370D02310221B065A6180BCB8463A
:1014B000F0BDC046F0B5FA20C646D024402520270E
:1014C0001026240600B5400002F03EFEA56105206E
:1014D000A7616661656102F037FE1420A56102F024
:1014E00033FE9620656102F02FFE0122DC4DA761DC
:1014F0006B682968181D10339A408000A66108188F
:101500004B681A42FCD1EF23037068680122030084
:1015100010339A402968D34C2378002BFCD1013337
:101520002370D0231026202704301B0680005E6124
:1015300008185F619E614B681A42FCD10323037057
:1015400068680122030010339A4029682378002B31
:10155000FCD101332370D0231026202704301B0632
:1015600080005E6108185F619E614B681A42FCD181
:101570008023037068680122030010339A402968B1
:101580002378002BFCD101332370D0231026202791
:1015900004301B0680005E6108185F619E614B6825
:1015A0001A42FCD102230370686801220300103341
:1015B0009A4029682378002BFCD101332370D02373
:1015C0001026202704301B0680005E6108189F61EA
:1015D0009E614B681A42FCD1CF23037068680122D8
:1015E000030010339A4029682378002BFCD1013383
:1015F0002370D023102620271B0604305E615F6114
:101600009E6186008E1910004B6818401A42FAD16C
:10161000307068680122030010339A4029682378EB
:10162000002BFCD101332370D02310262027043057
:101630001B0680005E6108185F619E614B681A425C
:10164000FCD1C123037068680122030010339A4063
:1016500029682378002BFCD101332370D023102676
:10166000202704301B0680005E6108185F619E61C0
:101670004B681A42FCD130230370686801220300D2
:1016800010339A4029682378002BFCD10133237052
:10169000D0231026202704301B0680005E61081826
:1016A0009F619E614B681A42FCD1ED23037068680C
:1016B0000122030010339A4029682378002BFCD1C3
:1016C00001332370D0231026202704301B0680000E
:1016D0005E6108185F619E614B681A42FCD1642309
:1016E000037068680122030010339A402968237848
:1016F000002BFCD101332370D02310262027043087
:101700001B0680005E6108185F619E614B681A428B
:10171000FCD10323037068680122030010339A4050
:1017200029682378002BFCD101332370D0231026A5
:10173000202704301B0680005E6108185F619E61EF
:101740004B681A42FCD1122303706868012203001F
:1017500010339A4029682378002BFCD10133237081
:10176000D0231026202704301B0680005E61081855
:101770005F619E614B681A42FCD1812303706868E7
:101780000122030010339A4029682378002BFCD1F2
:1017900001332370D0231026202704301B0680003D
:1017A0005E6108189F619E614B681A42FCD1E82374
:1017B000037068680122030010339A402968237877
:1017C000002BFCD101332370D023102620270430B6
:1017D0001B0680005E6108185F619E614B681A42BB
:1017E000FCD18523037068680122030010339A40FE
:1017F00029682378002BFCD101332370D0231026D5
:1018000020271B0604305E615F619E6186008E1991
:1018100010004B6818401A42FAD1307068680122F3
:10182000030010339A4029682378002BFCD1013340
:101830002370D0231026202704301B0680005E6111
:1018400008185F619E614B681A42FCD178230370CF
:1018500068680122030010339A40296804E0C046FA
:10186000DC0E0020D80E00202378002BFCD10133A1
:101870002370D0231026202704301B0680005E61D1
:1018800008189F619E614B681A42FCD1CB230370FC
:1018900068680122030010339A4029682378002BDE
:1018A000FCD101332370D0231026202704301B06DF
:1018B00080005E6108185F619E614B681A42FCD12E
:1018C0003923037068680122030010339A402968A5
:1018D0002378002BFCD101332370D023102620273E
:1018E00004301B0680005E6108185F619E614B68D2
:1018F0001A42FCD12C2303706868012203001033C4
:101900009A4029682378002BFCD101332370D0231F
:10191000102620271B0604305E615F619E618600F1
:101920008E1910004B6818401A42FAD1307068685E
:101930000122030010339A4029682378002BFCD140
:1019400001332370D0231026202704301B0680008B
:101950005E6108185F619E614B681A42FCD13423B6
:10196000037068680122030010339A4029682378C5
:10197000002BFCD101332370D02310262027043004
:101980001B0680005E6108185F619E614B681A4209
:10199000FCD10223037068680122030010339A40CF
:1019A00029682378002BFCD101332370D023102623
:1019B000202704301B0680005E6108189F619E612D
:1019C0004B681A42FCD1F7230370686801220300B8
:1019D00010339A4029682378002BFCD101332370FF
:1019E000D0231026202704301B0680005E610818D3
:1019F0005F619E614B681A42FCD1202303706868C6
:101A00000122030010339A4029682378002BFCD16F
:101A100001332370D0231026202704301B068000BA
:101A20005E6108189F619E614B681A42FCD1EA23EF
:101A3000037068680122030010339A4029682378F4
:101A4000002BFCD101332370D023102620271B0646
:101A500004305E615F619E6186008E1910004B68E4
:101A600018401A42FAD1307068680122030010331E
:101A70009A4029682378002BFCD101332370D023AE
:101A8000102620271B0604305E615F619E61860080
:101A90008E1910004B6818401A42FAD130706868ED
:101AA0000122030010339A4029682378002BFCD1CF
:101AB00001332370D0231026202704301B0680001A
:101AC0005E6108189F619E614B681A42FCD1C02379
:101AD000037068680122030010339A402968237854
:101AE000002BFCD101332370D02310262027043093
:101AF0001B0680005E6108185F619E614B681A4298
:101B0000FCD12323037068680122030010339A403C
:101B100029682378002BFCD101332370D0231026B1
:101B2000202704301B0680005E6108189F619E61BB
:101B30004B681A42FCD1C12303706868012203007C
:101B400010339A4029682378002BFCD1013323708D
:101B5000D0231026202704301B0680005E61081861
:101B60005F619E614B681A42FCD110230370686864
:101B70000122030010339A4029682378002BFCD1FE
:101B800001332370D0231026202704301B06800049
:101B90005E6108189F619E614B681A42FCD1C523A3
:101BA000037068680122030010339A402968237883
:101BB000002BFCD101332370D023102620270430C2
:101BC0001B0680005E6108185F619E614B681A42C7
:101BD000FCD13E23037068680122030010339A4051
:101BE00029682378002BFCD101332370D0231026E1
:101BF000202704301B0680005E6108185F619E612B
:101C00004B681A42FCD12823037068680122030044
:101C100010339A4029682378002BFCD101332370BC
:101C2000D0231026202704301B0680005E61081890
:101C30009F619E614B681A42FCD1C723037068689C
:101C40000122030010339A4029682378002BFCD12D
:101C500001332370D0231026202704301B06800078
:101C60005E6108185F619E614B681A42FCD1862351
:101C7000037068680122030010339A4029682378B2
:101C8000002BFCD101332370D023102620270430F1
:101C90001B0680005E6108189F619E614B681A42B6
:101CA000FCD13623037068680122030010339A4088
:101CB00029682378002BFCD101332370D023102610
:101CC000202704301B0680005E6108185F619E615A
:101CD0004B681A42FCD14823037068680122030054
:101CE00010339A4029682378002BFCD101332370EC
:101CF000D0231026202704301B0680005E610818C0
:101D00009F619E614B681A42FCD13A230370686858
:101D10000122030010339A4029682378002BFCD15C
:101D200001332370D0231026202704301B068000A7
:101D30005E6108185F619E614B681A42FCD15523B1
:101D4000037068680122030010339A4029682378E1
:101D5000002BFCD101332370D02310262027043020
:101D60001B0680005E6108189F619E614B681A42E5
:101D7000FCD1B123037068680122030010339A403C
:101D800029682378002BFCD101332370D02310263F
:101D900020271B0604305E615F619E6186008E19FC
:101DA00010004B6818401A42FAD13070686801225E
:101DB000030010339A4029682378002BFCD10133AB
:101DC0002370D0231026202704301B0680005E617C
:101DD00008185F619E614B681A42FCD1182303709A
:101DE00068680122030010339A4029682378002B89
:101DF000FCD101332370D0231026202704301B068A
:101E000080005E6108189F619E614B681A42FCD198
:101E1000B623037068680122030010339A402968D2
:101E20002378002BFCD101332370D02310262027E8
:101E300004301B0680005E6108185F619E614B687C
:101E40001A42FCD108230370686801220300103392
:101E50009A4029682378002BFCD101332370D023CA
:101E60001026202704301B0680005E6108185F6181
:101E70009E614B681A42FCD182230370686801227C
:101E8000030010339A4029682378002BFCD10133DA
:101E90002370D0231026202704301B0680005E61AB
:101EA00008185F619E614B681A42FCD127230370BA
:101EB00068680122030010339A4029682378002BB8
:101EC000FCD101332370D0231026202704301B06B9
:101ED00080005E6108189F619E614B681A42FCD1C8
:101EE000F223037068680122030010339A402968C6
:101EF0002378002BFCD101332370D0231026202718
:101F00001B0604305E615F619E6186008E191000C1
:101F10004B6818401A42FAD13070686801220300F9
:101F200010339A4029682378002BFCD101332370A9
:101F3000D0231026202704301B0680005E6108187D
:101F40009F619E614B681A42FCD12623037068682A
:101F50000122030010339A4029682378002BFCD11A
:101F600001332370D0231026202704301B06800065
:101F70005E6108185F619E614B681A42FCD10122C4
:101F8000027068682968030010339A402378002B98
:101F9000FCD101332370D0231026202704301B06E8
:101FA00080005E6108189F619E614B681A42FCD1F7
:101FB000E023037068680122030010339A40296807
:101FC0002378002BFCD101332370D0231026202747
:101FD00004301B0680005E6108185F619E614B68DB
:101FE0001A42FCD10F2303706868012203001033EA
:101FF0009A4029682378002BFCD101332370D02329
:102000001026202704301B0680005E6108185F61DF
:102010009E614B681A42FCD131230370686801222B
:10202000030010339A4029682378002BFCD1013338
:102030002370D0231026202704301B0680005E6109
:1020400008185F619E614B681A42FCD12B23037014
:1020500068680122030010339A4029682378002B16
:10206000FCD101332370D0231026202704301B0617
:1020700080005E6108185F619E614B681A42FCD166
:102080000C23037068680122030010339A4029680A
:102090002378002BFCD101332370D0231026202776
:1020A00004301B0680005E6108185F619E614B680A
:1020B0001A42FCD10E23037068680122030010331A
:1020C0009A4029682378002BFCD101332370D02358
:1020D0001026202704301B0680005E6108185F610F
:1020E0009E614B681A42FCD1082303706868012284
:1020F000030010339A4029682378002BFCD1013368
:102100002370D0231026202704301B0680005E6138
:1021100008185F619E614B681A42FCD14E23037020
:1021200068680122030010339A4029682378002B45
:10213000FCD101332370D0231026202704301B0646
:1021400080005E6108185F619E614B681A42FCD195
:10215000F123037068680122030010339A40296854
:102160002378002BFCD101332370D02310262027A5
:1021700004301B0680005E6108185F619E614B6839
:102180001A42FCD137230370686801220300103320
:102190009A4029682378002BFCD101332370D02387
:1021A0001026202704301B0680005E6108185F613E
:1021B0009E614B681A42FCD10723037068680122B4
:1021C000030010339A4029682378002BFCD1013397
:1021D0002370D0231026202704301B0680005E6168
:1021E00008185F619E614B681A42FCD1102303708E
:1021F00068680122030010339A4029682378002B75
:10220000FCD101332370D0231026202704301B0675
:1022100080005E6108185F619E614B681A42FCD1C4
:102220000323037068680122030010339A40296871
:102230002378002BFCD101332370D02310262027D4
:1022400004301B0680005E6108185F619E614B6868
:102250001A42FCD10E230370686801220300103378
:102260009A4029682378002BFCD101332370D023B6
:102270001026202704301B0680005E6108185F616D
:102280009E614B681A42FCD10923037068680122E1
:10229000030010339A4029682378002BFCD10133C6
:1022A0002370D023102620271B0604305E615F6157
:1022B0009E6186008E1910004B6818401A42FAD1B0
:1022C000307068680122030010339A40296823782F
:1022D000002BFCD101332370D0231026202704309B
:1022E0001B0680005E6108189F619E614B681A4260
:1022F000FCD1E123037068680122030010339A4087
:1023000029682378002BFCD101332370D0231026B9
:1023100020271B0604305E615F619E6186008E1976
:1023200010004B6818401A42FAD1307068680122D8
:10233000030010339A4029682378002BFCD1013325
:102340002370D0231026202704301B0680005E61F6
:1023500008185F619E614B681A42FCD10E2303701E
:1023600068680122030010339A4029682378002B03
:10237000FCD101332370D0231026202704301B0604
:1023800080005E6108185F619E614B681A42FCD153
:102390001423037068680122030010339A402968EF
:1023A0002378002BFCD101332370D0231026202763
:1023B00004301B0680005E6108185F619E614B68F7
:1023C0001A42FCD103230370686801220300103312
:1023D0009A4029682378002BFCD101332370D02345
:1023E0001026202704301B0680005E6108185F61FC
:1023F0009E614B681A42FCD1112303706868012268
:10240000030010339A4029682378002BFCD1013354
:102410002370D0231026202704301B0680005E6125
:1024200008185F619E614B681A42FCD10723037054
:1024300068680122030010339A4029682378002B32
:10244000FCD101332370D0231026202704301B0633
:1024500080005E6108185F619E614B681A42FCD182
:102460003123037068680122030010339A40296801
:102470002378002BFCD101332370D0231026202792
:1024800004301B0680005E6108185F619E614B6826
:102490001A42FCD1C1230370686801220300103383
:1024A0009A4029682378002BFCD101332370D02374
:1024B0001026202704301B0680005E6108185F612B
:1024C0009E614B681A42FCD1482303706868012260
:1024D000030010339A4029682378002BFCD1013384
:1024E0002370D0231026202704301B0680005E6155
:1024F00008185F619E614B681A42FCD10823037083
:1025000068680122030010339A4029682378002B61
:10251000FCD101332370D0231026202704301B0662
:1025200080005E6108185F619E614B681A42FCD1B1
:102530000F23037068680122030010339A40296852
:102540002378002BFCD101332370D02310262027C1
:1025500004301B0680005E6108185F619E614B6855
:102560001A42FCD10C230370686801220300103367
:102570009A4029682378002BFCD101332370D023A3
:102580001026202704301B0680005E6108185F615A
:102590009E614B681A42FCD13123037068680122A6
:1025A000030010339A4029682378002BFCD10133B3
:1025B0002370D0231026202704301B0680005E6184
:1025C00008185F619E614B681A42FCD13623037084
:1025D00068680122030010339A4029682378002B91
:1025E000FCD101332370D0231026202704301B0692
:1025F00080005E6108185F619E614B681A42FCD1E1
:102600000F23037068680122030010339A40296881
:102610002378002BFCD101332370D02310262027F0
:1026200004301B0680005E6108189F619E614B6844
:102630001A42FCD1112303702378002BFCD1D02740
:10264000012610333F06267078207B61984601F002
:102650007BFD06CD2023101DBB6110324346964002
:102660008000BB6108184B681E42FCD1292303700F
:102670002378002BFCD101332370D0231022FA20C1
:102680001B065A61400001F05FFD80BCB846F0BDFA
:10269000F0B51F00D023C646150020221B06454E6C
:1026A00000B59A61103A9A6173688846191D103313
:1026B0001C000123A340326889005118546823424A
:1026C000FCD12A233C4C0B702378002BFCD1013326
:1026D0002370D023102220211B065A6159619A6170
:1026E000FEF7F6F92378002BFCD101332370D023B9
:1026F000102220211B065A61280059619A61FEF7B9
:10270000E7F92378002BFCD1D023012510222021CA
:102710001B0625705A61996171689A61081D103114
:102720008D403368800018185A681542FCD12B235D
:1027300003702378002BFCD101332370D0231022A7
:1027400020211B065A61404659619A61FEF7C0F983
:102750002378002BFCD101332370D02310222021B9
:102760001B065A61380059619A61FEF7B1F9237866
:10277000002BFCD1D0231021012220201B06227027
:1027800059619861996122CE281D1035AA408000B8
:1027900008184B681342FCD12C2303702378002BBC
:1027A000FCD101332370D02310221B065A6180BC58
:1027B000B846F0BDDC0E0020D80E0020F8B5CE469D
:1027C000474680B5984608AB1E88294B91461B8822
:1027D00098423FDA274A1488A1423BDA4A46121847
:1027E00080B293423FDB4B469AB243465B1889B2B4
:1027F0009C4233DB43469BB2CB188218013B013A23
:102800009BB292B2FFF744FFD02320221B065A61ED
:10281000103A9A614346002B18DD4B46002B15DD1C
:102820000127154C4D463000FEF752F9217800295A
:10283000FCD1013DABB227702DB2002BF3D1434642
:10284000013B9AB21BB29846002AEBD1D02310224A
:102850001B065A61C0BCB946B046F8BD641AA3B2A3
:1028600024B2A046C8E71B1A9AB21BB29946BCE72D
:10287000E61D0020E41D0020D80E002000B5074B07
:1028800083B000229B5E064A0021525E0090002128
:102890000020FFF793FF03B000BDC046E41D0020F9
:1028A000E61D0020D0232022F0B51B0606003E487E
:1028B0009A61103A9A6143680F3A1C1D10339A408E
:1028C0000168A4000C194B681A42FCD1362323700E
:1028D00022C82B00012210339A40344B1C78002C64
:1028E000FCD10120D0241027187024060230676123
:1028F0003040022849D0032838D001281AD020209F
:102900000435AD0060614D19A76148681042FCD1E3
:1029100048222A701A78002AFCD101321A70D0237A
:102920000F321B065A61224BE0321A80214B503283
:102930001A80F0BD20200435AD0060614D19A761FB
:1029400048681042FCD128222A701A78002AFCD14B
:1029500001321A70D0230F321B065A61144B3132E8
:10296000FF321A80134B503A1A80E2E720200435D8
:10297000AD0060614D19A76148681042FCD1E822A2
:102980002A701A78002AFCD1E2E720200435AD0035
:1029900060614D19A76148681042FCD188222A70F5
:1029A0001A78002AFCD1B8E7DC0E0020D80E0020EF
:1029B000E61D0020E41D0020F0B5DE4657464E46D9
:1029C0004546E0B59B46CE4B91B01B8889B20600C8
:1029D0000192059197B298423EDACA4BCA1B1888F9
:1029E00091B212B2824237DA7D00ADB26C1CA3B252
:1029F00024B2A218904206DA059B3818C41AA3B272
:102A00005D1E24B2ADB24A1EB0B29B189BB202004A
:102A1000FFF73EFED02320221B065A61103A9A612E
:102A20002DB2002C14D00123B14698465E46B64C18
:102A30003000FEF74DF82378002BFCD1434623707D
:102A40006B1E1BB2002D01D01D00F1E7B3464E46B0
:102A5000D02310221B065A610123DB1B1BB20393F8
:102A6000FB03DF1B7F003BB20893019B002B00DCC4
:102A700059E1B3B20293059BA34E023B9BB2049370
:102A800000230093039B002B00DA53E1019B013BE1
:102A90009FB21BB20193089B02331AB20892039AA9
:102AA000944663449BB2009A7D00013291B28846FD
:102AB00012B200924A0092B2541C0C92059AA4B22F
:102AC000D21B91B212B20792AAB206920132E31857
:102AD000099191B21BB20B9111B20D0003930A91AF
:102AE000029B87494344098898B21BB28B4242DA61
:102AF000844B079A1B889A423DDA29009446614428
:102B00008B4200DB1AE1059A09999A1ABA1892B217
:102B1000013B92469BB20200FFF7BAFDD023202270
:102B20001B065A61103A9A615346013B1BB2994603
:102B30005346002B19D001239A464B46069AA146CC
:102B40005D461C0093462800FDF7C2FF3378002B3A
:102B5000FCD153463370631E1BB2002C01D01C0005
:102B6000F1E75A464C46AB460692D02310221B068C
:102B70005A61634B19884546029B059ADB19521B23
:102B800095B298B212B224B21BB20E950D920F9468
:102B90008B423FDA5B4B1B889A423BDA9446644493
:102BA000A34200DBDDE0059A29009B1A43449CB256
:102BB000049B0200E3189BB2FFF76AFDD02320229A
:102BC0001B065A61103A9A61631E1BB29946002C8B
:102BD0001AD001239A465B46069A4D469346B9465B
:102BE0001F00494C3800FDF773FF2378002BFCD100
:102BF000534623706B1E1BB2002D01D01D00F1E760
:102C00005B46BB464F460693D02310221B065A61F3
:102C10003B4B19884246029B9B1A98B21BB28B42CF
:102C200039DA384B079C1B889C4234DAA4460A9A4E
:102C30006244934200DBA6E0059A09999C1A013B85
:102C400002009BB2FFF724FDD02320223C191B0673
:102C5000A4B25A61651E103A9A612DB2002C14D0AC
:102C60000123BA4699465F46274C3800FDF730FFEE
:102C70002378002BFCD14B4623706B1E1BB2002D1A
:102C800001D01D00F1E7BB465746D02310221B069A
:102C90005A611B4B1988029BDF1BB8B23FB28F42AF
:102CA00038DA184B0D9A1B889A4233DA94460F9CF7
:102CB0006444A34200DB78E0059A0E999B1A4344D2
:102CC0009CB2049B0200E3189BB2FFF7E1FCD02307
:102CD00020221B065A61651E103A9A612DB2002C03
:102CE00014D00127084C5846FDF7F2FE2378002B3C
:102CF000FCD16B1E27701BB2002D07D01D00F2E720
:102D0000E61D0020E41D0020D80E0020D023102254
:102D10001B065A61049B009A013B9BB20493019BE2
:102D2000934200DDAEE611B0F0BCBB46B246A94608
:102D3000A046F0BD6A469BB29788B4E60B9A099903
:102D400094464B1E634402009BB2FFF7A1FCD023C4
:102D500020221B065A61103A9A61069B1BB29946C3
:102D6000E9E6059B020043449BB22900FFF790FC73
:102D7000D02320221B065A61103A9A616B463022FA
:102D80009B5E994625E70B9A099994464B1E63442E
:102D900002009BB2FFF77CFCD02320221B065A6165
:102DA000103A9A61069B1DB25AE7059B0200434404
:102DB0009BB20E99FFF76CFCD02320221B065A61B0
:102DC000103A9A616B4630255D5F8AE7F0B545465B
:102DD000DE4657464E46E0B58DB0049316AB1B88D1
:102DE000059317AB1B7898464C4B1B88984267DAC3
:102DF0004B4B1B88994263DA43465B0043445B00BC
:102E00001B18002B5CDD4346DB005B18002B57DDF5
:102E100043469BB29A4693009A18424B80B2D3180D
:102E20000A93002308938BB20B9308339BB209904B
:102E300007900393089B052B00D16CE00A9B1E783A
:102E40006B461C229B5E0B9D9B466B4624229B5E21
:102E50002C0006930123994643461FB212E04346D5
:102E6000012B34D0049B29B200933A003B00584612
:102E7000FFF7A4FC0134039B5544A4B27608ADB21D
:102E8000A3420CD04B463342E9D1059B049A9342AE
:102E9000F0D04346012B2CD0059B29B2E4E7089BD8
:102EA0000133DAB2099B089201339BB20993079B65
:102EB00053449BB207930A9B01330A93062AB9D164
:102EC0000DB0F0BCBB46B246A946A046F0BD069880
:102ED0000028CFDB114B1B889842CBDA21B20029A6
:102EE000C8DB0F4B1B889942C4DA049AFDF718FE21
:102EF000C0E706980028BDDB084B1B889842B9DA6A
:102F000021B20029B6DB064B1B889942B2DA059A3A
:102F1000FDF706FEAEE7002692E7C046E61D00205C
:102F2000E41D0020F4A40010F0B5CE46474680B55D
:102F30000278040083B0002A23D02A4B2A4E9946F7
:102F40002A4D0EE00D2A09D0092A1FD1274A284907
:102F50001388098804338B4200DA13802278002A10
:102F60000FD001340A2AEDD1224B1F4A1B88118849
:102F7000DB005B18138000221C4B1A802278002A89
:102F8000EFD103B0C0BCB946B046F0BD4B460020FF
:102F9000315E0027E85F174F1B88B8463F780197DE
:102FA000154F3F880097FFF711FF43461A8829887D
:102FB0005300D3185B005B1810499BB209882B8023
:102FC0000029CBD00A4908889100511A49004118BC
:102FD0008B42C3DD3388D200D218002332802B808D
:102FE000BCE7C046EE1D0020EA1D0020E81D0020C1
:102FF000E61D0020F01D0020EC1D0020F21D002029
:10300000024B1880024B19807047C046E81D002013
:10301000EA1D0020031C002800D10123014ADBB275
:1030200013807047F01D0020024B1880024B18805F
:103030007047C046EC1D0020EE1D0020F0B5D646BE
:103040004F464646C0B5814684B00B2000F0BEF91D
:10305000D024802324061B01A3621F211B2000F023
:103060005FF9002200211B2000F072F900211B20D3
:1030700000F098F98023984D5B012A680A2053409C
:10308000E022D2011340954A04AF136000F09EF98C
:103090008023DB0063621A20636100F097F98023CC
:1030A000DB046362A3618E4B01AC80222600210009
:1030B0009C4604205200634618602B681342FCD0E3
:1030C0006B681B041B0C08C1B942F4D1029A019B26
:1030D000934200DCFBE0029323001A60039D02226E
:1030E00002A900E001227F4BD3189B00E0588542E3
:1030F00000DBE6E0C850012AF4D1220015606268C6
:10310000794B0A209B1A984600F060F9D0231B06E1
:103110009A4680235246DB0093621F211A2000F05A
:10312000FFF8002200211A2000F012F900211A20D5
:1031300000F038F9E022684DD2012B681B201340C3
:10314000664A136000F042F9802352461B05536221
:103150000B20536100F03AF9802352461B01536261
:103160009361802204215E48520001602B68134263
:10317000FCD06B681B041B0C08C6BE42F5D1029A3A
:10318000019B934200DCA4E0029323001A60039E9B
:10319000022202A800E00122524BD3189B00E15802
:1031A0008E4200DB90E0C150012AF4D1220016606B
:1031B00063684D4C0A20E41AD02600F007F98023FA
:1031C0003606DB0073620B20B36100F0FFF880234A
:1031D0001B0173621F2173611A2000F0A1F8002205
:1031E00000211A2000F0B4F800211A2000F0DAF8CB
:1031F0001F211B2000F094F8002200211B2000F06A
:10320000A7F800211B2000F0CDF8E021324AC901C7
:1032100013680B4031490B600421314B1960FC31BC
:1032200013680B42FCD08023566812685B01534040
:10323000E022D2011340294A802113600422284B46
:1032400036041A60244A360C490013680B42FCD03D
:1032500050680004000C04F0C3F8071C300004F0B0
:10326000BFF8011C381C04F072F8FE21890504F037
:1032700068F8061C404604F0B3F8311C04F07BF8F3
:103280001A4904F078F8E621890504F074F8184921
:10329000061C04F09FF8002811D1301C04F0C2F87D
:1032A00006B2144804F0BCFA4B4642465C801A80D1
:1032B0009E8004B0E0BCBA46B146A846F0BD0E4EB2
:1032C000EFE79200A21819E79200A2186FE702AB8D
:1032D00003E702AB5AE7C04600C0044000D00440F8
:1032E00000E00440FFFFFF3FFF0F00000080894324
:1032F00000FEFF4604AA0010FF7F0000962110B5D3
:103300008901064801F0FAFA0221002000F008F8CD
:103310000221012000F004F810BDC0460040034027
:10332000094A830094464022634410B51C68C000DB
:103330006240C02414408022520113431C60034B9E
:103340009C466044416010BD04C001400040014003
:103350000A4B80009C4604236044002901D00C23C2
:103360000821002A00D10B00026853400C221A40A9
:1033700080235B01184302607047C04604C00140CF
:10338000074BC0009C466044036809025940C023B3
:103390009B00194080235B01184301607047C046C1
:1033A00004400140084B80009C466044002905D041
:1033B00080239B011843402303607047C0239B0177
:1033C000184340230360F8E704C001400123D022E2
:1033D0008340120693629361094A83009446402217
:1033E00063441968C0004A40C02111408022520144
:1033F00013431960034B9C460523604443607047A8
:1034000004C0014000400140024B18688007C00F13
:103410007047C04600C00640EFF3108072B6034A02
:103420001368002BFCD0BFF35F8F70472C0100D0D6
:10343000BFF35F8F0022024B1A6080F31088704741
:103440002C0100D070B5EFF3108C72B60D4D2B68C7
:10345000002BFCD0BFF35F8F0724CB08C618C05CDD
:1034600001230C40A3401C000440034207D1034346
:103470003370BFF35F8F2C608CF3108870BD100029
:1034800001F0A4FD2C0100D0F8B54746CE46884691
:1034900080B5EFF3108C72B6214D2C68002CFCD057
:1034A000BFF35F8F9A422CD8D4080727055D061911
:1034B00001241740BC402C421FD007210127894618
:1034C00009E0D408055D06194C4639001440A140B6
:1034D0000C00294211D001329342F2D20120404225
:1034E000BFF35F8F00220E4B1A608CF31088002808
:1034F0000FDBC0BCB946B046F8BD2C431000347099
:10350000EEE7BFF35F8F00232B608CF31088012060
:1035100040424346002BECD0089801F057FDC046CE
:103520002C0100D00021044B044ABFF35F8F02C37B
:103530009342FAD17047C046000100D0800100D00C
:10354000044A1078431CDBB2172B00D910231370E8
:103550007047C046E80E002000B5054B83B001005F
:10356000009318221F230348FFF78EFF03B000BD0E
:103570000CAA0010C818002001238340002904D0A1
:10358000034A1360034A13607047034A1360FBE762
:1035900080E200E000E100E080E100E00123834000
:1035A000014A13607047C04600E200E0084B10304B
:1035B0009B688000C358002B07D0064A00209B1A46
:1035C0002F229A424041C0B270470020FCE7C0461B
:1035D00000ED00E0EC0E0020024B10309B688000F4
:1035E000C058704700ED00E070B50D00EFF3108695
:1035F00072B60F4A1368002BFCD0BFF35F8F0D4BE0
:1036000010309B6884001B590B4A934203D09D42A3
:1036100001D001F0F3FC074B9B681D51BFF35F8F96
:10362000BFF35F8F0022024B1A6086F3108870BDD3
:10363000240100D000ED00E0CD010010F0B55746A8
:103640004E46DE464546E0B585B0060002911700BD
:10365000EFF3108B72B6674A1368002BFCD0BFF3F0
:103660005F8F0025644B5D579A46002D00DAA4E079
:103670006B00624C03935B199B009846A146C144C2
:103680004B4652469B79103613705D4BB2009B68D7
:10369000019299580B1B2F2B34D95A4B994200D0C9
:1036A000A4E0039B584A9C46584B6544AD006353C5
:1036B000434602336519E418554B0121043B1B1B9B
:1036C0001B055B0D13436B80524BEF71AB80FF23E7
:1036D000AB71029BAB604B460B431900484B019A00
:1036E0009B689950BFF35F8FBFF35F8F0022414B00
:1036F0001A608BF3108805B0F0BCBB46B246A946F1
:10370000A046F0BD01200A008243D379BB422FD8E6
:1037100045464E46130040491B1B5B415943090D6A
:103720003A4B63533A4B02356519043B5B1B1B054F
:10373000354D5B0D2B4373800426B446E04444446E
:10374000131F1B1B4C46A17102991B05A160494622
:103750005B0D2B43A380314BE77101431360BDE741
:103760005800C01880002018C679BE422BD902002C
:103770000623D356002BF3DA101D824628488046D4
:1037800004267642B446E14450464E46361A300589
:10379000400D824656461C48957106439680039A12
:1037A000944665441D4AAD00641922604246A371E7
:1037B000029BA280E771A36090E701F01FFC002547
:1037C00053465D5754E7101D82469088400500150A
:1037D00084464046D444664604302018301AE02619
:1037E0000005400D360230438046C9E701F006FC73
:1037F00057E7C046240100D0FC1D0020EC0E00203D
:1038000000ED00E0CD01001000E0FFFF00A1FFFF90
:103810001C0F002001BDFFFFAAAA0000014880473D
:1038200001BD0000F0B5DE4657464E464546E0B5C0
:103830000C0083B0EFF3108972B6584A1368002B5E
:10384000FCD0BFF35F8F564B9A68030010339F0084
:10385000D559544A9046954232D0A54243D0524E53
:10386000AA1B2F2A2CD801228240924651464F4A49
:1038700012681140019151464D4A1160BFF35F8FAC
:10388000EFF305829346002A33D101232A009A439D
:1038900093689C4208D177E04B005B189B00F318BB
:1038A0009968A1422AD01A00062151560029F3DA5C
:1038B000019B002B19D052463E4B1A603B4B1A60BD
:1038C000374B9B68DD51BFF35F8FBFF35F8F0022E3
:1038D000324B1A6089F3108803B0F0BCBB46B24685
:1038E000A946A046F0BD1500EAE75246304B1A60E3
:1038F000E6E79342C9D001F081FBC6E7062159569D
:10390000002921DB4A005018800034188046A06846
:103910009860E079D871062020569871002824DB41
:10392000A488F01A6405241544440019E024000515
:10393000400D24022043988052181F4B9200B61865
:103940001A781970B271B3E7594600290FD1FF31C7
:1039500091711A49918018490A789A71184A9B1BEB
:103960005B415A43120D0A70A2E71648E3E7164A74
:103970001649D21A083A5002400D01439980144961
:1039800052080A43DA8093E70621515613000029B2
:10399000B8DA5A46002AEAD14546DCE7240100D0CD
:1039A00000ED00E0CD010010EC0E002000E100E091
:1039B00080E100E080E200E0FC1D002001BDFFFF8F
:1039C000AAAA000001BD0000260F002000F0FFFFA2
:1039D00000F8FFFF70B5EFF3058101240443EFF316
:1039E000108C72B6214A1368002BFCD0BFF35F8F96
:1039F0001F4B05001F4AED1A6D416A43120D1E4D03
:103A00008900AE6852B27658A6421CD0062159569B
:103A100091421CD012215956914222D01E21595652
:103A2000914220D02A2159560324914210D0134BA1
:103A300019781A708171BFF35F8F00220B4B1A60E7
:103A40008CF3108870BDAB680D4C5C50EFE7002420
:103A50006100091989005B18FF2199710949998052
:103A6000E5E70124F4E70224F2E7C046240100D090
:103A7000EC0E0020AAAA000000ED00E0FC1D0020D2
:103A8000CD01001001BDFFFF054B064A1360064A39
:103A9000136053609360D360136153619361704707
:103AA0008080808000E400E004E400E000B5074B83
:103AB00083B001000093002205230548FFF7E4FCD2
:103AC000002801DB1F23181A03B000BD28AA00102C
:103AD000011E0020024B9C46614489000160704732
:103AE0004000003410B50400FFF72AFD010020005B
:103AF000FFF7F0FFFF232371BFF35F8F10BDC046B8
:103B000010B50400FFF71CFD01002000FFF7E2FFE5
:103B1000FF23A380BFF35F8F10BDC04610B5040024
:103B20000120FFF719FD044B9C4660448000206093
:103B3000BFF35F8F10BDC04640000034034B9C466E
:103B4000614489000160BFF35F8F7047400000341B
:103B500083680B4810B58446614462440901120130
:103B60009A18591854684B6801209C4201D802D019
:103B70000020C0B210BD12680B689A42F9D8F7E76E
:103B8000FFFFFF0F0A4B1968EFF3108072B60A6847
:103B9000002AFCD0BFF35F8F1B68BFF35F8F00224A
:103BA0001A6080F3108840BF002000217047C04693
:103BB000A41D0020F8B557464E464546DE46E0B502
:103BC00099460CAB1C780DAB1B78060090469A46C4
:103BD0000768002C11D1BC7B002C42D065003B68EB
:103BE0002D19033D59194B78BB73002B00D1FB7382
:103BF00000238B704B700B7004E065003B682D193F
:103C0000033D5919B2682A4B94464246E3181B01FA
:103C100063441A604A465A600A9A9A600B9ADA60BC
:103C200000238B704B700B707B7B9B46002B2BD043
:103C300022005946B8687B6898473A68002816D031
:103C40005B4658465B005B445519033BA870D1188E
:103C5000D35C002B00D06B705B460C707B73A3456C
:103C600013D0F0BCBB46B246A946A046F8BD5B46A1
:103C70005B005B44033BD3189C705119525D002AD2
:103C800000D05A705B460B707C7342464B46307DC9
:103C900000F0D2FB051E06D05346002B03D12100B5
:103CA000306800F0EDFD0E9B002BDAD01D70D8E7D8
:103CB000FFFFFF0FF0B5DE4657464E464546002350
:103CC000E0B58BB00893674B8200D45800239B4625
:103CD000099000F027FB626806000F00EFF31085E3
:103CE00072B61368002BFCD0BFF35F8F23689C462D
:103CF0005B7B9946002B00D169E0A2685A4B904645
:103D00004B441B01984443461A685B681000190035
:103D1000801BB941002900DC63E0099800F08CFBAE
:103D200000230022984600230692079300239A4618
:103D30006368BFF35F8F5A461A6085F31088534655
:103D4000002B08D10028C4D10BB0F0BCBB46B24652
:103D5000A946A046F0BD089B414618024B461843B1
:103D6000D047626806000F00EFF3108572B6136843
:103D7000002BFCD0BFF35F8F002F50DB33003B43A1
:103D800002D02369002B61D12368D97B002907D099
:103D90004A00521819688C4649466244033A5170E9
:103DA0009A7B002A01D14A469A734A46DA734B46F7
:103DB000E168013BCA5C0132CA545B462361636817
:103DC000BFF35F8F5A461A6085F3108881E700239E
:103DD00000229846002306920793002300209A466B
:103DE000A6E7002902D1002800D096E7002160460E
:103DF00000F0C4FC43461A685B680692079343468A
:103E00009B689A464346DB689846E3684B44013B0F
:103E10001B7808931B0203432361002088E7236972
:103E2000002BB1D0069A079B921BBB41002B15DBE0
:103E3000594604910121039149460291414601915D
:103E4000514620000091FFF7B5FEB6E700F06AFA90
:103E500032003B0012184B41002BE9DA0122034BE0
:103E60005242E5E7881D0020FFFFFF0FFFFFFF7FA5
:103E700010B5144C6368002B04D00A211248FFF7D8
:103E800029FE10BD2300114A1021206800F090FB8C
:103E9000032000F03BFA032000F038FB03200C491C
:103EA00000F084FAFFF74CFB0A4B9C460323237572
:103EB000D0231B061B6860446375074B800060605D
:103EC000DC60DAE7340F0020A41D0020513B001015
:103ED000B53C001040000034881D002000487047A9
:103EE000340F0020F0B54E464546DE465746E0B555
:103EF00085B0019310AB1B7806000393002399460D
:103F0000984600927268EFF3108B72B61368002B1C
:103F1000FCD0BFF35F8F3568AC7B002C3DD06700D1
:103F20002B683F19033FDB195A78AA73002A00D186
:103F3000EA73B168474A8C4600980199A2181201A9
:103F40006244106051600E9991600F99D1604246B1
:103F50009A705A701A706B7B9A46002B67D02200B9
:103F60001900A8686B6898472A68002852D0534601
:103F700050465B005344D719033BB870D118D35C4B
:103F8000002B00D07B7053460C706B7354454FD0A0
:103F9000F3681B19013B187800E000207368BFF339
:103FA0005F8F42461A608BF31088002C4FD04B462F
:103FB000002B08D10002204305B0F0BCBB46B2463E
:103FC000A946A046F0BD039B002B3ED00E9B0020CF
:103FD0000F999847030004000D000B4335D00029CA
:103FE0000ADA009A019B121BAB4100920193002B4D
:103FF0000ADB039B994685E700F094F924184D41AC
:1040000000940195002DF4DA0123134C5B420093D8
:104010000194EEE753465B005344033BD3189C7076
:10402000D119D25D002A00D05A7053460B706C73C0
:10403000307D009A019B00F0FFF981460028A7D04F
:104040002100306800F01CFCA2E70020B4E701204A
:104050004042B1E7FFFFFF0FFFFFFF7F407D70474A
:10406000F0B504000D0006267642F717C64636194D
:104070006F4100B584B08F4214D811D000F052F9CE
:1040800032003B00121A8B41002B15DC002B3ED076
:104090002000290000F07AF904B080BCB846F0BDD9
:1040A0008642EBD90026002700F03CF932003B00A5
:1040B000121A8B41002BE9DD002302930193154B6B
:1040C0003200009314483B00FFF70CFF0028DFDBB1
:1040D00000239846BC46114A114F7B6A9C4504D880
:1040E000B96A8E42D4D99C45D2D11168EFF31080C1
:1040F00072B60B68002BFCD0BFF35F8F1368BFF361
:104100005F8F4146196080F3108820BFE5E7002AE1
:10411000BED0D1E7853B0010340F0020A41D002045
:104120000040054070B504000D0000F0FBF80019D8
:104130006941002902DBFFF793FF70BD01200149AF
:104140004042F8E7FFFFFF7F70B5060000F0EAF895
:10415000FA2204000D00002330000021920003F039
:10416000D3F800196941002902DBFFF779FF70BD20
:10417000012001494042F8E7FFFFFF7FF0B5EFF370
:104180000583CE46474680B505000C0085B0002B60
:1041900012D02C4A0020536A9C4203D8926A013004
:1041A000AA4204D305B0C0BCB946B046F0BDE01A7F
:1041B000421E9041C0B2F5E7234E02930193234B78
:1041C0000200009330000B00FFF78CFE031EE0DDC1
:1041D00020BF7168EFF3108772B60A68002AFCD01E
:1041E000BFF35F8FDAB294463068427B62451DD0E0
:1041F000FF221A4051008946016891448846494689
:10420000414403398978002913D0F1681B0A884694
:104210004244013A1278DBB29A420FD07368BFF37E
:104220005F8F00221A6087F31088B2E7FF221A40DE
:10423000EBE732699342F1D13161EFE7614600F07B
:104240001FFBEBE700400540340F0020853B0010CA
:10425000F0B5EFF30582D6464F4646461000C0B58E
:104260001038EFF3108872B6214C2368002BFCD075
:10427000BFF35F8F0123190081401E4D1F0069634A
:10428000AA461D4D29601D4D2E78AC463500C5400F
:104290002F402B4209D1BFF35F8F276088F310882E
:1042A000E0BCBA46B146A846F0BD5346144D5F6A1D
:1042B00083005D59AF420ED3124A8E439B5862462B
:1042C0001670BFF35F8F0022226088F31088002BE6
:1042D000E6D09847E4E70C4B92009C466244136892
:1042E0001360BFF35F8F0023236088F31088D7E744
:1042F000280100D0004005403C700540001E002011
:10430000B01D002088170020D03F054010B50100E7
:10431000024A0348FFF796F810BDC04644AA0010B1
:10432000FB1D0020034B596A0A00986A596A8A42A9
:10433000FAD170470040054070B504000D00124AE4
:10434000536A1900966A536A8B42FAD130001900F9
:1043500024184D41AB4211D80ED02B000A494A6AAD
:104360009A42FCD307D1084A02E0516A994202D12D
:10437000916AA142F9D370BDA642EED9012301246E
:104380006442E5175B42E9E700400540064A536A8C
:104390009942FCD807D1044B02E05A6A914202D1FB
:1043A0009A6A8242F9D370470040054070B5040014
:1043B0000D00EFF3108672B61A4A1368002BFCD07A
:1043C000BFF35F8F002D1BD02000FFF705F91649C2
:1043D00081420AD02000FFF707F901212000FFF7F2
:1043E000CBF80123A340114A1360114BA400E55000
:1043F000BFF35F8F00220B4B1A6086F3108870BDED
:104400000B4BA200D5500122A2400A4920000B7894
:1044100093430B700449FFF705FA00212000FFF7D2
:10442000ABF8E5E7280100D05142001038600540A4
:1044300088170020001E0020F0B54F46D64646469D
:10444000C0B507002C4C616A0D00A66A616AA942DA
:10445000FAD18B4208D805D00120E0BCBA46B1465B
:10446000A846F0BDB242F7D9EFF3108A72B62348DE
:1044700001680029FCD0BFF35F8F0125BD402049B2
:104480001D4C8846097889462943C9B28C46414665
:1044900060460870391D1B48890065630A51B900E0
:1044A0000B50216A0020294219D0616A0800A66ACF
:1044B000616A8142FAD18B4219D801D1B24216D831
:1044C000CC4516D00C4B1F201D625D6301230740B5
:1044D000BB400D4A1E38136043464A461A70BFF36C
:1044E0005F8F0022054B1A608AF31088B5E7002021
:1044F000F5E70120F3E7C04600400540280100D061
:10450000001E0020B01D002080E200E0EFF3108CC0
:1045100072B60A490B68002BFCD0BFF35F8F0123F2
:104520008340074A0748136202789A430270BFF338
:104530005F8F00230B608CF310887047280100D038
:1045400000400540001E002070B505001400160054
:10455000002915D00C00002A12D080686B6898479B
:10456000296800280ED073009B196200033B1219C2
:10457000CB18033A9C7088188A5C002A15D1067003
:10458000200070BD63001B197200033B9219CB1809
:10459000033A9E7088188A5C002A02D104703400A5
:1045A000EEE75A7004703400EAE75A700670E7E7E5
:1045B00030B583600023CCB243730133047342608F
:1045C0008373C4730D000068012C06D9421C0133AB
:1045D000DBB2137003329C42F9D1FF2129404B001A
:1045E0005918002340180338437030BDF8B5CE4643
:1045F000474606000C0080B5002907D04D0003682F
:104600006D18033D5A195778002F04D12000C0BC03
:10461000B946B046F8BD7900C91903398846434404
:104620005978894600215970517073683A00210009
:10463000806898473368002814D042469A189470CE
:1046400059195B5D002B00D053700F70270049464D
:104650003000FFF7CBFF390002003000FFF774FF96
:104660000400D3E7424641465D19AF709A185B5C7F
:10467000002B00D06B701470E9E7C046F0B55746C8
:104680004546DE464E46E0B50D006B0001685B19FD
:10469000DF1E0400C85D83B00192CA19002850D003
:1046A00043001B18033BCB185E78B446002E1AD18A
:1046B000019E002E42D0E67B002E04D073009B1991
:1046C000CB18033B5D70A37B002B00D1A573E57372
:1046D00000282FD10023537003B0F0BCBB46B24674
:1046E000A946A046F0BD72006244033A89184A7890
:1046F000904600224A7091465A7001003200200014
:10470000FFF722FF43468246002B07D05B0021685B
:104710004344033BCB185A78002A16D142465146EF
:104720002000FFF711FF2168019BCA19002BC2D19D
:104730000028CFD043001B18033BCB1800219970F1
:10474000C8E7019B002BB6D1C4E75000801803389E
:1047500009184878834648464870587041462000FA
:10476000FFF7F2FE594680462000FFF73FFF414623
:1047700002002000FFF7E8FE8046CFE7F0B557467D
:104780004546DE464E46E0B583B00191457B0400C8
:104790006B0000685B19DF1EC15DC219002952D091
:1047A0004B005B18033BC3185E78B446002E1CD147
:1047B000019E002E44D0E67B002E04D073009B198E
:1047C000C318033B5D70A37B002B00D1A573E57379
:1047D000002931D1002328005370617303B0F0BC6D
:1047E000BB46B246A946A046F0BD72006244033AF9
:1047F0008018427890460022427091465A702000FC
:104800003200FFF7A1FE43468246002B07D05B0033
:1048100021684344033BCB185A78002A17D14246FB
:1048200051462000FFF790FE019B01002068C2194D
:10483000002BC0D10029CDD04B005B18033BC3181F
:1048400000209870C6E7019B002BB4D1C2E750004E
:1048500080180338091848788346484648705870CD
:1048600041462000FFF770FE594680462000FFF7C2
:10487000BDFE414602002000FFF766FE8046CEE7FF
:1048800070B5040000292CD0437B8B422ED00568E4
:1048900048004018033828188278002A21D0530095
:1048A0009B18033BEA5CEE188A4202D11BE0002A07
:1048B00008D053009B18033BEB185A788A42F6D174
:1048C00042785A7000230122837043702000FFF762
:1048D000D5FE617B02002000FFF736FE60730120E9
:1048E00000E0002070BD43783370EBE7012219002F
:1048F000FFF7C4FE60730120F4E7C046F8B5CE466A
:104900004746040080B506200E0000F023FA051E7D
:1049100051D0524B5249E21853425A418023DB0393
:104920009C4692054F4B62441A604F4B1A60100030
:104930008B689843FBD1494B8021E3185A4253417D
:104940004A4A5B0049009952062000F003FA310000
:10495000C00001F0BBFEC30932D1402201219046C4
:104960006162A362256BEB0736D427008026E36AD9
:1049700000232C3776013E4333600620256300F088
:10498000E9F94146800001F0A1FE236B050098463D
:10499000DB073BD46022E36A5A406E231340336046
:1049A00043462363802310229B013B431A60304B14
:1049B00023630323A3642800C0BCB946B046F8BDF6
:1049C0002C4A93423FD900232B492C4A6162A362AF
:1049D000256B9046EB07C8D52200C02330329B01DF
:1049E0001343234A06201A60666AA26AB601B61803
:1049F00000F0B0F9224901F069FEB6020100300072
:104A000001F064FE0021FFF797FCAEE72200C0230F
:104A100030329B011343164A06201A60636AA26A69
:104A20009B019946914400F095F94B4614499B022D
:104A3000994601F04BFE0100484601F047FE002177
:104A4000FFF77AFCA6E77F229901884610400130E3
:104A5000400819008044030082E7C0460080FCBF84
:104A600000C0004000E0004000F00040C01D0020F9
:104A700001030000FEFF0000FFFF0000C0FF3F0039
:104A80004E0E000030B50C2083B000F0B9F9FEF7EF
:104A9000BBFC00280ED0994B994A1A605A609A6064
:104AA000DA601A615A619A61DA611A62954A5A6249
:104AB00003B030BD944CA06700F0F6F90122934B8F
:104AC0001A60636C012BFCD10322914B1A608E4A51
:104AD000936B012BFCD1013301218E4A8E48009348
:104AE000043300F03DF905238C4A009301218C48E2
:104AF00000F036F98B4B5A68FF2A02D88022520008
:104B00005A6080227D4C824B21691201854D1A60CA
:104B1000002907D0606901F0D9FD431C5800C01876
:104B20000338FDD2E0217F4B02201A681140802219
:104B300052012A4311601968484003210140116065
:104B400004219A681142FCD08022802192012A43DC
:104B500009011160802252005A60734B2361734B2C
:104B60005968FF2900D85A600321684A6F4B1160C9
:104B700002399A681142FCD0E0201A681040802265
:104B800052011A4310601868484003210140022076
:104B9000116066498A681042FCD08022920113435A
:104BA000802212011A608022614B52004A606361C8
:104BB000604B5968FF2900D85A6080225E4BE1693A
:104BC00012015C4D1A60002907D0606901F07EFD7A
:104BD000431C5800C0180338FDD2E02255490B6829
:104BE0001A4080235B012B431A60802380229B01A3
:104BF0002B4312011A608022414B52004A60E3614C
:104C00004E4B5968FF2900D85A6080224C4B216ACC
:104C100012014A4D1A60002907D0606901F056FD63
:104C2000431C5800C0180338FDD2E02243490B68EA
:104C30001A4080235B012B431A60802380229B0152
:104C40002B4312011A60802380225B004B602C4BA7
:104C5000D20223623B4B5968914200D25A608022B3
:104C6000394B616A1201374D1A60002907D060691B
:104C700001F02CFD431C5800C0180338FDD2E0227F
:104C800030490B681A4080235B012B431A60802354
:104C900080229B012B4312011A608023DB024B60B0
:104CA000184B6362294B5A68FF2A02D880225200AF
:104CB0005A608022264BA1691201244D1A600029F6
:104CC00007D0606901F002FD431C5800C01803388A
:104CD000FDD2E0221D490B681A4080235B012B4363
:104CE0001A60802380229B012B4312011A608023CB
:104CF0005B004B600E4BA361DAE6C046CC18002087
:104D0000006CDC021BB70000008000403CB000409B
:104D100030B00040002F685900800240008C864768
:104D200000C0024030800040001BB7003C800040C3
:104D3000405973075480004054B0004060800040E8
:104D400060B000406C8000406CB000404880004083
:104D500048B00040014B8000C0587047CC1800207C
:104D6000F8B5040021481D0017000E0001F0AEFC4C
:104D70000100380001F0AAFC069B29041B0319431B
:104D80002368002B20DB1A4B1A4DE21853425A417C
:104D900080235B019C461203174B62441A60174B39
:104DA0001A601700AB689F43FBD1C022231D9201FC
:104DB0001A4321232660A06013602368002BFCDACD
:104DC0000823E1601360F8BD3F2322681340B3421B
:104DD000D9D1A3681B051B0D8342D4D1EE22E36811
:104DE000D20213408B42CED1EDE7C046001BB70084
:104DF0000040FDBF00C0004000E0004000F0004067
:104E00008023024A9B000343D36270470080054021
:104E100010B5140080221B4BD2051A6000281AD04E
:104E20000123194A1843194BDA61194A42401A62A0
:104E3000596298628022134BD2051A601549164AAE
:104E40001160E022D2041A60002C07D18022134B9B
:104E500012061A6010BD0D4BD861EBE763011B1BF6
:104E60009A008023121912015B049A4200D30C4A63
:104E70000C4B1A60054B5A608022084BD2051A6011
:104E8000E8E7C04600B00540D3C007B00080054049
:104E90002D3FF84FFCFF01000820014000A0054015
:104EA000FFFFFF006C1D0020AA23064A1B011360B0
:104EB0002F230549D360054B19605368002BFCDA9A
:104EC0007047C0460040024000B0FA000060024057
:104ED0002C4B2D4A70B51A602C4A2D4B2D491A6067
:104EE00014008B689C43FBD12B4D2C4EB54208D24D
:104EF000013E761BB60808CD984723000134B34223
:104F0000F9D1FFF7BFFD264A214B1A60214A936869
:104F1000DB43DB01DD09002BF9D14022214B224C80
:104F2000224E9A675A671A67DA66B44208D2236833
:104F30002000002B20D00834FEF7E2FDB442F6D367
:104F40001B4E1C4CC022A168300002F005FBA6607D
:104F5000FEF7E8FAFEF798FDFEF78AFF164C174EAB
:104F6000B44208D2013E361BB60808CC98472B0045
:104F700001359E42F9D170BD0834FEF7B3FDB4424D
:104F8000D5D3DDE700E00040BFCDFBFEFE7F3C0057
:104F900000F0004000C00040F00F00200010002092
:104FA000FFFFFF0100F00140E80F0020F00F00209C
:104FB0000000002000ED00E0001000200C10002098
:104FC00000BEFDE710B5FFF7FBFFC0460FB400B50C
:104FD000084883B002F024FC049B002B07D005A9ED
:104FE0001800019101F0F2FA034802F019FC0120C7
:104FF000FFF7E6FF68AA001078AA001010B5014874
:10500000FFF7E4FF7CAA00109A4200D28854704750
:105010007047C046F8B557464E464546DE46E0B5B1
:1050200099460A9B07009A460D9B884693461500B1
:105030000B9E9B0710D10C9B9E420DD29D1B140012
:105040000E005D4422004B46013431002020B84759
:10505000A542F7D1B0460B9E002E27D044467519C5
:105060005346AA1B013E985D21004B46B847002ECF
:10507000F6D123002C0098460D9B9B070FD55B466D
:10508000E51A0C9BAB420AD94646984622004B468D
:10509000310020200135B8470134A845F6D820005A
:1050A000F0BCBB46B246A946A046F8BD2C00E3E7DB
:1050B000F0B54F464646D646C0B584B098460EABCE
:1050C0001B78129F994694460D9C109B119EBA071F
:1050D00025D4002E4BD19C4200D3BFE001223A40A0
:1050E00092461F2C00D9B8E00C9A551E302201E0E0
:1050F000202C03D001342A55A342F9D85246002A65
:105100000DD0A6420BD9202C44D00C9A551E30222B
:1051100001E0202C3ED001342A55B442F9D1FA06E0
:105120004DD57A053FD4002C39D10F9B102B00D1DF
:1051300079E00F9B022B00D18AE030230C9A0124E6
:1051400013704B46002B3FD02D230C9A135501347E
:105150000C9B624600930397434602960194FFF727
:1051600059FF04B0E0BCBA46B146A846F0BD0122E2
:1051700015003D40AA463A422FD04A46002A02D1A5
:105180000C323A4200D0013E9C42BAD21F2CABD91D
:10519000202E27D92024FA06DAD57A0503D4A34293
:1051A0002DD0A6422BD00F9B102B32D0022B20D01B
:1051B000202CCDD030220C9B1B191A700134202CCE
:1051C000C6D04B46002BBFD17B070DD43B07BFD5C4
:1051D00020230C9A13550134BAE79C429FD21F2C0E
:1051E00000D881E720249AE72B230C9A1355013429
:1051F000AEE7202CACD00C9B1B1901343AE0631EA7
:10520000012C92D00F9A102A2AD0022A2FD01C00EB
:10521000D0E7BB060ED4202C9AD00C9B1A1901346F
:1052200078231370C4E7BB060DD478230C9A0124AD
:105230001370BFE7202C00D18AE758220C9B1B1962
:105240001A700134B4E758230C9A01241370B1E7A3
:105250000C9A603301241370ACE7202400265EE72B
:10526000023CBA06E9D40C9A12191C00D8E70C9A31
:105270009246534462221A709AE7C04610B500283D
:1052800000D110BD02F080FAFBE7C0460B0010B55C
:10529000002802D049681B68984710BDF0B5DE466B
:1052A00057464E464546E0B59BB09B46249B8946F3
:1052B0009846259B0B900C924046424619009A4610
:1052C00001F0CDFC002800D0D8E001224046514634
:1052D000774B524201F0BEFC002800D0CEE0012204
:1052E00040465146734B524201F09EFC002800D0CC
:1052F000C4E0002200234046514601F095FC0028FE
:1053000000D0B9E1424653460A9209938023289A75
:10531000DB001A400E92289A1A4201D106232693E6
:105320000A9A099B1600134300D0C7E0289B00256A
:1053300000261B0500D49BE100230D93269A0D9BAC
:105340009A4200DC9FE1D01A431E26938023289ABC
:10535000DB001A430023002728920D93279B00248B
:10536000BB4200D9DC1B0223289A1A400E92289ACD
:10537000134203D07B427B415B421C400D9B002BC0
:1053800007D00A9809992A00330001F0ECFB0A9033
:105390000991002200234046514601F045FC0028B7
:1053A00005D0802000068446099961440991289A15
:1053B000414B0B9D13400493269B0A9A0293099B31
:1053C00003940092019349465B4628000C9A00F032
:1053D0008BF90400002F62D0289B220098061F231F
:1053E000C0179843631C984649465B466530A847FA
:1053F0000D9B0025DA179C18DB0F9A465440013F9D
:1054000001E0202D13D00AAA94461F2320006344F4
:105410000A2101355E1901F059F93031317020004F
:105420000A2101F053F926000400092EE9D80523CA
:105430000693002304930A330393534605970B9F67
:10544000029312AB009342465B46494638000195F1
:10545000FFF72EFE0E9B0400002B20D00C9BC51ADC
:10546000279BAB421BD91E0022005B4649462020E9
:105470000135B8470134AE42F6D810E0289B4246C9
:105480000493279B49460393269B0B98029353460C
:10549000009201935B460C9A00F026F9040020006C
:1054A0001BB0F0BCBB46B246A946A046F0BDC04604
:1054B000FFFFEF7FFFFFEFFFFFF7FFFF734B099F3A
:1054C0009C467800400D604401F0DCFB704A714B53
:1054D00001F067FB704A714B01F03CFB3B03704AE3
:1054E0001B0B1A4304000D00300011006D4B00220D
:1054F00001F027FB6C4A6D4B01F053FB02000B00DF
:105500002000290001F026FB01F0D4FB0D9001F0F2
:10551000B9FB674A674B04000D0001F042FB002213
:10552000654B01F017FB01F0C5FB644A0600644BB4
:105530002000290001F035FB040030000D000F961B
:1055400001F0A0FB5F4A604B01F02BFB02000B0057
:105550002000290001F0F5FA02000B0006000F0000
:1055600001F01FFB320004000D003B003000390049
:1055700001F0F0FA002210901191544B2000290004
:1055800001F0F1FA0022524B01F0E4FA02000B00A4
:105590002000290001F0E7FA00224E4B01F0DAFA70
:1055A00002000B002000290001F0DDFA0D0080212F
:1055B000040032003B000020C90501F0C2FA0200DD
:1055C0000B002000290001F0C5FA02000B00109822
:1055D000119901F0C8FA0022314B01F0BBFA3E4BA1
:1055E0000F9C9C4664440022230501F0DAFA050072
:1055F0000E0002000B000A98099901F015FB002823
:105600000AD00D9B2800013B31000D930022304B46
:1056100001F0A9FA05000E00C6270D992B00633191
:105620008F42BF4128997F420437090500D495E68F
:10563000334300D182E6099C284A2100284B0A986E
:1056400001F000FB002808D000222100254B0A9819
:1056500001F0EAFA002800D070E6269B002B00D16A
:105660007CE60E9B5A1E9341269AD31A269375E622
:10567000002304270D9371E643460A9380231B06FB
:105680005344099342E6002326935FE601FCFFFFA3
:10569000FB799F501344D33FB3C8608B288AC63F21
:1056A0000000F03F0000F83F61436F63A787D23FDF
:1056B00071A379094F930A400000E03F1655B5BB2E
:1056C000B16B0240EF39FAFE422EE63F00002C405B
:1056D0000000244000001840FF0300002D431CEB95
:1056E000E2361A3F80842E41F0B54E46DE465746DC
:1056F0004546E0B597B09946209E219F229B834660
:10570000984607910C923B0032003000390001F0BE
:10571000A6FA002800D0A9E1012230003900CA4BC6
:10572000524201F081FA002800D0E1E0012230006D
:105730003900C64B524201F08DFA002800D0B7E084
:10574000002230003900C24B01F084FA002800D05A
:1057500099E0002230003900BE4B01F065FA0028C4
:1057600000D090E0002200233000390001F05CFA04
:10577000002800D0B1E000230D93249B5B0501D4E9
:105780000623984608AB9C46172200243023414646
:10579000624404E0013413550139202C01D0092959
:1057A000F8D888463000390001F084FA4346DA0020
:1057B000A94B05009B181A685B680892099301F0D1
:1057C00061FA02000B003000390001F0BAF9089AC2
:1057D000099B01F0E6F90A900B9101F08FFA8246DD
:1057E00001F04CFA02000B000A980B9901F0A9F99C
:1057F00000229A4B0A900B9101F02CFA002800D15C
:10580000C0E001239C46E244504601F037FA020012
:105810000B000898099901F00DFA002802D0002326
:105820009A4601354346002B6AD008AB17269C46A2
:1058300008956644554614E001235B4243440A211F
:1058400028009A4600F042FF013430313719397090
:1058500028000A2100F03AFF092D00D8D0E0D046F8
:105860000500202CE8D10EAB98460323249A134060
:10587000012B00D196E02023249A01930392239ACE
:10588000434602921EE0249B58460493239B0096B5
:105890000197039343460C9A029307994B46FFF7EF
:1058A000FDFC17B0F0BCBB46B246A946A046F0BD11
:1058B000249B5B070ED40322694B24990192039128
:1058C00023990291009358464B460C9A0799FFF78B
:1058D000A1FBE6E70422634BEFE73B003200002028
:1058E000002101F02EF9012306000F000D9344E77B
:1058F000249B0393239B0293042301935A4BE1E7D8
:10590000280001F0BFF902000B003000390001F05F
:1059100018F9524B002206000F0001F085F90EAB7A
:10592000984600280AD10022300039004B4B01F084
:1059300091F9002802D1EB0700D50135202C94D035
:1059400008AA94461723280063440A2101341E192B
:1059500000F094FE3031280031700A2100F08EFEF4
:10596000051EEBD10323249A1340012B1BD0202CBE
:1059700000D180E70D9B002B35D02D224146631CC2
:105980000A5579E700220A980B99344B01F04CF93B
:10599000002800D046E75346002B51D101239C46F6
:1059A000E2443FE72024239B002BE0D00D9B002BFB
:1059B00003D1249A0C33134202D0239B013B23933F
:1059C000239BA342D3D908AB9C46172230236244C1
:1059D000202C00D14FE72399013413558C42C6D0B7
:1059E000202CF8D147E7249B5B0724D4249A23007A
:1059F000120700D440E72022414601330A553BE715
:105A00005746089D202C00D12DE72200302140462A
:105A1000002F09D00132B154202A00D123E7D3430B
:105A20001B191B18002BF5D10EAB98462E234146AF
:105A3000541C8B5482E72B224146631C0A551BE7FA
:105A4000DB0700D4EEE6A9E7FFFFEFFFFFFFEF7FE4
:105A500065CDCD4165CDCDC180AC00100000E03FEB
:105A600088AA00108CAA001098AA0010249B039307
:105A7000239B029303230193004B23E794AA001076
:105A8000F0B5DE464E4657464546E0B59FB01C0091
:105A9000289B91460993C94AC94B8B4608901A60C6
:105AA000002900D118E2002320789A46002800D16E
:105AB0001AE226001D005C460AE02A006F1C4B46D5
:105AC000089D2100A8473D0001363078002870D09D
:105AD0002528F2D110239B46083B9A46043B984662
